{
  "contractName": "Voting",
  "abi": [
    {
      "constant": true,
      "inputs": [
        {
          "name": "",
          "type": "uint256"
        }
      ],
      "name": "candidateList",
      "outputs": [
        {
          "name": "",
          "type": "uint256"
        }
      ],
      "payable": false,
      "stateMutability": "view",
      "type": "function",
      "signature": "0xb13c744b"
    },
    {
      "constant": true,
      "inputs": [
        {
          "name": "",
          "type": "uint256"
        }
      ],
      "name": "votesReceived",
      "outputs": [
        {
          "name": "",
          "type": "uint256"
        }
      ],
      "payable": false,
      "stateMutability": "view",
      "type": "function",
      "signature": "0xf3084a63"
    },
    {
      "inputs": [
        {
          "name": "candidateNums",
          "type": "uint256[]"
        }
      ],
      "payable": false,
      "stateMutability": "nonpayable",
      "type": "constructor",
      "signature": "constructor"
    },
    {
      "constant": true,
      "inputs": [
        {
          "name": "candidate",
          "type": "uint256"
        }
      ],
      "name": "totalVotesFor",
      "outputs": [
        {
          "name": "",
          "type": "uint256"
        }
      ],
      "payable": false,
      "stateMutability": "view",
      "type": "function",
      "signature": "0xa805f1ca"
    },
    {
      "constant": false,
      "inputs": [
        {
          "name": "candidate",
          "type": "uint256"
        }
      ],
      "name": "voteForCandidate",
      "outputs": [],
      "payable": true,
      "stateMutability": "payable",
      "type": "function",
      "signature": "0x36c8c5ee"
    },
    {
      "constant": true,
      "inputs": [
        {
          "name": "candidate",
          "type": "uint256"
        }
      ],
      "name": "validCandidate",
      "outputs": [
        {
          "name": "",
          "type": "bool"
        }
      ],
      "payable": false,
      "stateMutability": "view",
      "type": "function",
      "signature": "0x21b4bdde"
    }
  ],
  "bytecode": "0x608060405234801561001057600080fd5b506040516104f33803806104f38339810180604052602081101561003357600080fd5b81019080805164010000000081111561004b57600080fd5b8281019050602081018481111561006157600080fd5b815185602082028301116401000000008211171561007e57600080fd5b5050929190505050806002908051906020019061009c9291906100a3565b5050610115565b8280548282559060005260206000209081019282156100df579160200282015b828111156100de5782518255916020019190600101906100c3565b5b5090506100ec91906100f0565b5090565b61011291905b8082111561010e5760008160009055506001016100f6565b5090565b90565b6103cf806101246000396000f3fe60806040526004361061006d576000357c0100000000000000000000000000000000000000000000000000000000900463ffffffff16806321b4bdde1461007257806336c8c5ee146100c5578063a805f1ca146100f3578063b13c744b14610142578063f3084a6314610191575b600080fd5b34801561007e57600080fd5b506100ab6004803603602081101561009557600080fd5b81019080803590602001909291905050506101e0565b604051808215151515815260200191505060405180910390f35b6100f1600480360360208110156100db57600080fd5b8101908080359060200190929190505050610238565b005b3480156100ff57600080fd5b5061012c6004803603602081101561011657600080fd5b8101908080359060200190929190505050610338565b6040518082815260200191505060405180910390f35b34801561014e57600080fd5b5061017b6004803603602081101561016557600080fd5b8101908080359060200190929190505050610368565b6040518082815260200191505060405180910390f35b34801561019d57600080fd5b506101ca600480360360208110156101b457600080fd5b810190808035906020019092919050505061038b565b6040518082815260200191505060405180910390f35b600080600090505b60028054905081101561022d578260028281548110151561020557fe5b90600052602060002001541415610220576001915050610233565b80806001019150506101e8565b50600090505b919050565b610241816101e0565b151561024c57600080fd5b600160003373ffffffffffffffffffffffffffffffffffffffff1673ffffffffffffffffffffffffffffffffffffffff16815260200190815260200160002060009054906101000a900460ff161515156102a557600080fd5b60018060003373ffffffffffffffffffffffffffffffffffffffff1673ffffffffffffffffffffffffffffffffffffffff16815260200190815260200160002060006101000a81548160ff021916908315150217905550600067016345785d8a00003481151561031157fe5b04905080600080848152602001908152602001600020600082825401925050819055505050565b6000610343826101e0565b151561034e57600080fd5b600080838152602001908152602001600020549050919050565b60028181548110151561037757fe5b906000526020600020016000915090505481565b6000602052806000526040600020600091509050548156fea165627a7a7230582091a81ccb075b21ef4e4196e43e17089d6ae845e6b872fecf078e76bdccf8aacf0029",
  "source": "pragma solidity ^0.5.0;\n\n\ncontract Voting {\n\n  mapping (uint => uint) public votesReceived;    //一个获选人编号-票数的键值对，用于记录该候选人票数\n  mapping (address => bool) private addrRecoded; //投票人地址-bool类型键值对，用于判断该地址是否投过票\n\n  uint[] public candidateList;                  //存储候选人编号，便于对输入的候选人编号进行检查\n\n  constructor(uint[] memory candidateNums) public {  //初始化候选人\n    candidateList = candidateNums;\n  }\n\n  function totalVotesFor(uint candidate) view public returns(uint) {  //返回指定编号的候选人票数\n    require(validCandidate(candidate));\n    return votesReceived[candidate];\n  }\n\n  function voteForCandidate(uint candidate) payable public {    //给指定编号的候选人投票\n    require(validCandidate(candidate));\n    require(!addrRecoded[msg.sender]);\n    addrRecoded[msg.sender] = true;\n    uint m = msg.value / 0.1 ether;\n    votesReceived[candidate] += m;\n  }\n\n  function validCandidate(uint candidate) view public returns(bool){  //判断输入的候选人编号是否合法\n    for (uint i = 0; i < candidateList.length; i++) {\n      if (candidateList[i] == candidate) {\n        return true;\n      }\n    }\n    return false;\n  }\n}\n",
  "sourcePath": "D:/Voting/contracts/Voting.sol",
  "compiler": {
    "name": "solc",
    "version": "0.5.0+commit.1d4f565a.Emscripten.clang"
  },
  "schemaVersion": "3.0.0",
  "updatedAt": "2019-01-03T08:30:54.240Z",
  "devdoc": {
    "methods": {}
  },
  "userdoc": {
    "methods": {}
  }
}